{"abi":[{"type":"function","name":"decrement","inputs":[],"outputs":[],"stateMutability":"nonpayable"},{"type":"function","name":"increment","inputs":[],"outputs":[],"stateMutability":"nonpayable"},{"type":"function","name":"number","inputs":[],"outputs":[{"name":"","type":"uint256","internalType":"uint256"}],"stateMutability":"view"},{"type":"function","name":"setNumber","inputs":[{"name":"newNumber","type":"uint256","internalType":"uint256"}],"outputs":[],"stateMutability":"nonpayable"}],"bytecode":{"object":"0x6080604052348015600f57600080fd5b506102388061001f6000396000f3fe608060405234801561001057600080fd5b506004361061004c5760003560e01c80632baeceb7146100515780633fb5c1cb1461005b5780638381f58a1461006e578063d09de08a14610089575b600080fd5b610059610091565b005b610059610069366004610155565b6100a7565b61007760005481565b60405190815260200160405180910390f35b6100596100e3565b6000805490806100a083610184565b9190505550565b60008190556040805180820190915260148152732437b630903232b9b2329039b2ba273ab6b132b960611b60208201526100e0906100f2565b50565b6000805490806100a08361019b565b6100e08160405160240161010691906101b4565b60408051601f198184030181529190526020810180516001600160e01b031663104c13eb60e21b1790526100e08180516a636f6e736f6c652e6c6f67602083016000808483855afa5050505050565b60006020828403121561016757600080fd5b5035919050565b634e487b7160e01b600052601160045260246000fd5b6000816101935761019361016e565b506000190190565b6000600182016101ad576101ad61016e565b5060010190565b602081526000825180602084015260005b818110156101e257602081860181015160408684010152016101c5565b506000604082850101526040601f19601f8301168401019150509291505056fea2646970667358221220488254bb027525810fd2a9243b54f757169a08d2bfe30b24cb9f73123e3a54d564736f6c634300081a0033","linkReferences":{}},"methodIdentifiers":{"decrement()":"2baeceb7","increment()":"d09de08a","number()":"8381f58a","setNumber(uint256)":"3fb5c1cb"},"id":23}