{"abi":[{"type":"constructor","inputs":[],"stateMutability":"nonpayable"},{"type":"function","name":"getMensaje","inputs":[],"outputs":[{"name":"","type":"string","internalType":"string"}],"stateMutability":"view"},{"type":"function","name":"setMensaje","inputs":[{"name":"nuevoMensaje","type":"string","internalType":"string"}],"outputs":[],"stateMutability":"nonpayable"}],"bytecode":{"object":"0x608060405234801561001057600080fd5b5060408051808201909152601881527f486f6c61204d756e646f20646573646520466f756e6472790000000000000000602082015260009061005290826100f7565b506101b5565b634e487b7160e01b600052604160045260246000fd5b600181811c9082168061008257607f821691505b6020821081036100a257634e487b7160e01b600052602260045260246000fd5b50919050565b601f8211156100f257806000526020600020601f840160051c810160208510156100cf5750805b601f840160051c820191505b818110156100ef57600081556001016100db565b50505b505050565b81516001600160401b0381111561011057610110610058565b6101248161011e845461006e565b846100a8565b6020601f82116001811461015857600083156101405750848201515b600019600385901b1c1916600184901b1784556100ef565b600084815260208120601f198516915b828110156101885787850151825560209485019460019092019101610168565b50848210156101a65786840151600019600387901b60f8161c191681555b50505050600190811b01905550565b6103ab806101c46000396000f3fe608060405234801561001057600080fd5b50600436106100365760003560e01c8063698247b31461003b578063bd75985914610059575b600080fd5b61004361006e565b6040516100509190610110565b60405180910390f35b61006c610067366004610174565b610100565b005b60606000805461007d9061022d565b80601f01602080910402602001604051908101604052809291908181526020018280546100a99061022d565b80156100f65780601f106100cb576101008083540402835291602001916100f6565b820191906000526020600020905b8154815290600101906020018083116100d957829003601f168201915b5050505050905090565b600061010c82826102b6565b5050565b602081526000825180602084015260005b8181101561013e5760208186018101516040868401015201610121565b506000604082850101526040601f19601f83011684010191505092915050565b634e487b7160e01b600052604160045260246000fd5b60006020828403121561018657600080fd5b813567ffffffffffffffff81111561019d57600080fd5b8201601f810184136101ae57600080fd5b803567ffffffffffffffff8111156101c8576101c861015e565b604051601f8201601f19908116603f0116810167ffffffffffffffff811182821017156101f7576101f761015e565b60405281815282820160200186101561020f57600080fd5b81602084016020830137600091810160200191909152949350505050565b600181811c9082168061024157607f821691505b60208210810361026157634e487b7160e01b600052602260045260246000fd5b50919050565b601f8211156102b157806000526020600020601f840160051c8101602085101561028e5750805b601f840160051c820191505b818110156102ae576000815560010161029a565b50505b505050565b815167ffffffffffffffff8111156102d0576102d061015e565b6102e4816102de845461022d565b84610267565b6020601f82116001811461031857600083156103005750848201515b600019600385901b1c1916600184901b1784556102ae565b600084815260208120601f198516915b828110156103485787850151825560209485019460019092019101610328565b50848210156103665786840151600019600387901b60f8161c191681555b50505050600190811b0190555056fea264697066735822122098d63df2d3153446aef5a046bdcaa6ea123370ffe3d696ff82f381b16a031c3b64736f6c634300081a0033","linkReferences":{}},"methodIdentifiers":{"getMensaje()":"698247b3","setMensaje(string)":"bd759859"},"id":24}