{"abi":[{"type":"constructor","inputs":[],"stateMutability":"nonpayable"},{"type":"receive","stateMutability":"payable"},{"type":"function","name":"owner","inputs":[],"outputs":[{"name":"","type":"address","internalType":"address payable"}],"stateMutability":"view"},{"type":"function","name":"retirar","inputs":[{"name":"cantidad","type":"uint256","internalType":"uint256"}],"outputs":[],"stateMutability":"nonpayable"},{"type":"function","name":"setOwner","inputs":[{"name":"_owner","type":"address","internalType":"address"}],"outputs":[],"stateMutability":"nonpayable"},{"type":"event","name":"Deposit","inputs":[{"name":"account","type":"address","indexed":false,"internalType":"address"},{"name":"amount","type":"uint256","indexed":false,"internalType":"uint256"}],"anonymous":false}],"bytecode":{"object":"0x6080604052348015600f57600080fd5b50600080546001600160a01b0319163317905561026d806100316000396000f3fe6080604052600436106100385760003560e01c806313af40351461007c5780638da5cb5b1461009e578063e8b1298f146100da57600080fd5b3661007757604080513381523460208201527fe1fffcc4923d04b559f4d29a8bfc6cda04eb5b0d3c460751c2402c5c5cc9109c910160405180910390a1005b600080fd5b34801561008857600080fd5b5061009c6100973660046101ee565b6100fa565b005b3480156100aa57600080fd5b506000546100be906001600160a01b031681565b6040516001600160a01b03909116815260200160405180910390f35b3480156100e657600080fd5b5061009c6100f536600461021e565b61016f565b6000546001600160a01b0316331461014d5760405162461bcd60e51b815260206004820152601160248201527027379032b932b99032b61037bbb732b91760791b60448201526064015b60405180910390fd5b600080546001600160a01b0319166001600160a01b0392909216919091179055565b6000546001600160a01b031633146101bd5760405162461bcd60e51b815260206004820152601160248201527027379032b932b99032b61037bbb732b91760791b6044820152606401610144565b604051339082156108fc029083906000818181858888f193505050501580156101ea573d6000803e3d6000fd5b5050565b60006020828403121561020057600080fd5b81356001600160a01b038116811461021757600080fd5b9392505050565b60006020828403121561023057600080fd5b503591905056fea2646970667358221220e5789fa4d652d57d2ad22b15fe76c12dfb7048655f3e45595413d549d26f0ae764736f6c634300081a0033","linkReferences":{}},"methodIdentifiers":{"owner()":"8da5cb5b","retirar(uint256)":"e8b1298f","setOwner(address)":"13af4035"},"id":24}