{"abi":[{"type":"constructor","inputs":[],"stateMutability":"nonpayable"},{"type":"receive","stateMutability":"payable"},{"type":"function","name":"owner","inputs":[],"outputs":[{"name":"","type":"address","internalType":"address payable"}],"stateMutability":"view"},{"type":"function","name":"retirar","inputs":[{"name":"cantidad","type":"uint256","internalType":"uint256"}],"outputs":[],"stateMutability":"nonpayable"},{"type":"function","name":"setOwner","inputs":[{"name":"_owner","type":"address","internalType":"address"}],"outputs":[],"stateMutability":"nonpayable"}],"bytecode":{"object":"0x6080604052348015600f57600080fd5b50600080546001600160a01b03191633179055610235806100316000396000f3fe6080604052600436106100385760003560e01c806313af4035146100445780638da5cb5b14610066578063e8b1298f146100a257600080fd5b3661003f57005b600080fd5b34801561005057600080fd5b5061006461005f3660046101b6565b6100c2565b005b34801561007257600080fd5b50600054610086906001600160a01b031681565b6040516001600160a01b03909116815260200160405180910390f35b3480156100ae57600080fd5b506100646100bd3660046101e6565b610137565b6000546001600160a01b031633146101155760405162461bcd60e51b815260206004820152601160248201527027379032b932b99032b61037bbb732b91760791b60448201526064015b60405180910390fd5b600080546001600160a01b0319166001600160a01b0392909216919091179055565b6000546001600160a01b031633146101855760405162461bcd60e51b815260206004820152601160248201527027379032b932b99032b61037bbb732b91760791b604482015260640161010c565b604051339082156108fc029083906000818181858888f193505050501580156101b2573d6000803e3d6000fd5b5050565b6000602082840312156101c857600080fd5b81356001600160a01b03811681146101df57600080fd5b9392505050565b6000602082840312156101f857600080fd5b503591905056fea2646970667358221220f0f466bfb3be9a55c7a68d3d4fce5a013687cf3351310cd76a300be161cf90e664736f6c634300081a0033","linkReferences":{}},"methodIdentifiers":{"owner()":"8da5cb5b","retirar(uint256)":"e8b1298f","setOwner(address)":"13af4035"},"id":23}