{"abi":[{"type":"function","name":"throwCustomError","inputs":[],"outputs":[],"stateMutability":"pure"},{"type":"function","name":"throwError","inputs":[],"outputs":[],"stateMutability":"pure"},{"type":"error","name":"NoAutorizado","inputs":[]}],"bytecode":{"object":"0x6080604052348015600f57600080fd5b5060d080601d6000396000f3fe6080604052348015600f57600080fd5b506004361060325760003560e01c80632f7643a8146037578063c1e2603314603f575b600080fd5b603d6045565b005b603d6081565b60405162461bcd60e51b815260206004820152600d60248201526c4e6f204175746f72697a61646f60981b604482015260640160405180910390fd5b6040516324cd082160e21b815260040160405180910390fdfea26469706673582212203b8fe953e4cd75c9206152af7ea5fcfe55d3f879430c71e8795eb836a3b6dadf64736f6c634300081a0033","linkReferences":{}},"methodIdentifiers":{"throwCustomError()":"c1e26033","throwError()":"2f7643a8"},"id":23}