{"abi":[{"type":"function","name":"fin","inputs":[],"outputs":[{"name":"","type":"uint256","internalType":"uint256"}],"stateMutability":"view"},{"type":"function","name":"finalizar","inputs":[],"outputs":[],"stateMutability":"view"},{"type":"function","name":"inicio","inputs":[],"outputs":[{"name":"","type":"uint256","internalType":"uint256"}],"stateMutability":"view"},{"type":"function","name":"oferta","inputs":[],"outputs":[],"stateMutability":"view"}],"bytecode":{"object":"0x6080604052600f42620151806030565b600055601d426202a3006030565b600155348015602b57600080fd5b506056565b80820180821115605057634e487b7160e01b600052601160045260246000fd5b92915050565b61015c806100656000396000f3fe608060405234801561001057600080fd5b506004361061004b5760003560e01c8062a36947146100505780632541edcc1461006b5780633624850e14610075578063ff8fec811461007e575b600080fd5b61005960015481565b60405190815260200160405180910390f35b610073610086565b005b61005960005481565b6100736100df565b6000544210158015610099575060015442105b6100dd5760405162461bcd60e51b815260206004820152601060248201526f273790383ab2b2329037b332b93a30b960811b60448201526064015b60405180910390fd5b565b6001544210156100dd5760405162461bcd60e51b8152602060048201526012602482015271273790383ab2b232903334b730b634bd30b960711b60448201526064016100d456fea2646970667358221220f61e83fa4373217114879249cf64f36d2a3c4ecd463be6671901252ce9cc2db664736f6c634300081a0033","linkReferences":{}},"methodIdentifiers":{"fin()":"00a36947","finalizar()":"ff8fec81","inicio()":"3624850e","oferta()":"2541edcc"},"id":23}