{"abi":[{"type":"function","name":"transfer","inputs":[{"name":"_from","type":"address","internalType":"address"},{"name":"_to","type":"address","internalType":"address"},{"name":"_amount","type":"uint256","internalType":"uint256"}],"outputs":[],"stateMutability":"nonpayable"},{"type":"function","name":"transferMany","inputs":[{"name":"_from","type":"address","internalType":"address"},{"name":"_to","type":"address[]","internalType":"address[]"},{"name":"_amount","type":"uint256[]","internalType":"uint256[]"}],"outputs":[],"stateMutability":"nonpayable"},{"type":"event","name":"Transfer","inputs":[{"name":"from","type":"address","indexed":true,"internalType":"address"},{"name":"to","type":"address","indexed":true,"internalType":"address"},{"name":"amount","type":"uint256","indexed":false,"internalType":"uint256"}],"anonymous":false}],"bytecode":{"object":"0x6080604052348015600f57600080fd5b506102f38061001f6000396000f3fe608060405234801561001057600080fd5b50600436106100365760003560e01c80631a9d4dc91461003b578063beabacc814610050575b600080fd5b61004e6100493660046101c3565b610063565b005b61004e61005e366004610249565b610109565b60005b838110156101015784848281811061008057610080610285565b9050602002016020810190610095919061029b565b6001600160a01b0316866001600160a01b03167fddf252ad1be2c89b69c2b068fc378daa952ba7f163c4a11628f55a4df523b3ef8585858181106100db576100db610285565b905060200201356040516100f191815260200190565b60405180910390a3600101610066565b505050505050565b816001600160a01b0316836001600160a01b03167fddf252ad1be2c89b69c2b068fc378daa952ba7f163c4a11628f55a4df523b3ef8360405161014e91815260200190565b60405180910390a3505050565b80356001600160a01b038116811461017257600080fd5b919050565b60008083601f84011261018957600080fd5b50813567ffffffffffffffff8111156101a157600080fd5b6020830191508360208260051b85010111156101bc57600080fd5b9250929050565b6000806000806000606086880312156101db57600080fd5b6101e48661015b565b9450602086013567ffffffffffffffff81111561020057600080fd5b61020c88828901610177565b909550935050604086013567ffffffffffffffff81111561022c57600080fd5b61023888828901610177565b969995985093965092949392505050565b60008060006060848603121561025e57600080fd5b6102678461015b565b92506102756020850161015b565b9150604084013590509250925092565b634e487b7160e01b600052603260045260246000fd5b6000602082840312156102ad57600080fd5b6102b68261015b565b939250505056fea26469706673582212202e2e00287f7991d3e5efaf4a2244ec9e9218b3a1141d95e189ed1a1d9b6937b464736f6c634300081a0033","linkReferences":{}},"methodIdentifiers":{"transfer(address,address,uint256)":"beabacc8","transferMany(address,address[],uint256[])":"1a9d4dc9"},"id":23}